{
  "contractName": "MultiNumberBetting",
  "abi": [
    {
      "constant": true,
      "inputs": [],
      "name": "lastWinnerAt",
      "outputs": [
        {
          "name": "",
          "type": "uint256"
        }
      ],
      "payable": false,
      "stateMutability": "view",
      "type": "function"
    },
    {
      "constant": true,
      "inputs": [],
      "name": "owner",
      "outputs": [
        {
          "name": "",
          "type": "address"
        }
      ],
      "payable": false,
      "stateMutability": "view",
      "type": "function"
    },
    {
      "inputs": [
        {
          "name": "num1",
          "type": "uint8"
        },
        {
          "name": "num2",
          "type": "uint8"
        },
        {
          "name": "num3",
          "type": "uint8"
        }
      ],
      "payable": false,
      "stateMutability": "nonpayable",
      "type": "constructor"
    },
    {
      "payable": true,
      "stateMutability": "payable",
      "type": "fallback"
    },
    {
      "anonymous": false,
      "inputs": [
        {
          "indexed": true,
          "name": "addr",
          "type": "address"
        },
        {
          "indexed": false,
          "name": "name",
          "type": "string"
        },
        {
          "indexed": false,
          "name": "amount",
          "type": "uint256"
        }
      ],
      "name": "WinningBet",
      "type": "event"
    },
    {
      "anonymous": false,
      "inputs": [
        {
          "indexed": true,
          "name": "addr",
          "type": "address"
        },
        {
          "indexed": false,
          "name": "name",
          "type": "string"
        },
        {
          "indexed": false,
          "name": "amount",
          "type": "uint256"
        }
      ],
      "name": "LosingBet",
      "type": "event"
    },
    {
      "constant": false,
      "inputs": [
        {
          "name": "guessNum",
          "type": "uint8"
        },
        {
          "name": "playerName",
          "type": "string"
        }
      ],
      "name": "guess",
      "outputs": [
        {
          "name": "",
          "type": "bool"
        }
      ],
      "payable": true,
      "stateMutability": "payable",
      "type": "function"
    },
    {
      "constant": true,
      "inputs": [],
      "name": "totalGuesses",
      "outputs": [
        {
          "name": "",
          "type": "uint256"
        }
      ],
      "payable": false,
      "stateMutability": "view",
      "type": "function"
    },
    {
      "constant": true,
      "inputs": [],
      "name": "daysSinceLastWinning",
      "outputs": [
        {
          "name": "",
          "type": "uint256"
        }
      ],
      "payable": false,
      "stateMutability": "view",
      "type": "function"
    },
    {
      "constant": false,
      "inputs": [],
      "name": "hoursSinceLastWinning",
      "outputs": [
        {
          "name": "",
          "type": "uint256"
        }
      ],
      "payable": false,
      "stateMutability": "nonpayable",
      "type": "function"
    },
    {
      "constant": true,
      "inputs": [],
      "name": "minutesSinceLastWinning",
      "outputs": [
        {
          "name": "",
          "type": "uint256"
        }
      ],
      "payable": false,
      "stateMutability": "view",
      "type": "function"
    },
    {
      "constant": true,
      "inputs": [],
      "name": "getLastWinnerInfo",
      "outputs": [
        {
          "name": "",
          "type": "address"
        },
        {
          "name": "",
          "type": "string"
        },
        {
          "name": "",
          "type": "uint256"
        },
        {
          "name": "",
          "type": "uint256"
        },
        {
          "name": "",
          "type": "uint256"
        }
      ],
      "payable": false,
      "stateMutability": "view",
      "type": "function"
    },
    {
      "constant": true,
      "inputs": [
        {
          "name": "addr",
          "type": "address"
        }
      ],
      "name": "checkWinning",
      "outputs": [
        {
          "name": "",
          "type": "address"
        },
        {
          "name": "",
          "type": "string"
        },
        {
          "name": "",
          "type": "uint256"
        },
        {
          "name": "",
          "type": "uint256"
        },
        {
          "name": "",
          "type": "uint256"
        }
      ],
      "payable": false,
      "stateMutability": "view",
      "type": "function"
    },
    {
      "constant": false,
      "inputs": [
        {
          "name": "amt",
          "type": "uint256"
        }
      ],
      "name": "ownerWithdraw",
      "outputs": [
        {
          "name": "",
          "type": "uint256"
        }
      ],
      "payable": false,
      "stateMutability": "nonpayable",
      "type": "function"
    }
  ],
  "bytecode": "0x60606040526000600955341561001457600080fd5b6040516060806112a483398101604052808051906020019091908051906020019091908051906020019091905050826006600060038110151561005357fe5b602091828204019190066101000a81548160ff021916908360ff160217905550816006600160038110151561008457fe5b602091828204019190066101000a81548160ff021916908360ff16021790555080600660026003811015156100b557fe5b602091828204019190066101000a81548160ff021916908360ff16021790555033600b60006101000a81548173ffffffffffffffffffffffffffffffffffffffff021916908373ffffffffffffffffffffffffffffffffffffffff16021790555050505061117c806101286000396000f3006060604052600436106100a4576000357c0100000000000000000000000000000000000000000000000000000000900463ffffffff1680630f8df5b4146100a657806315153cdc146100cf57806333f707d1146100f857806348992bfa1461012f5780635249c231146101585780636d48a043146102525780638da5cb5b1461027b5780638ef28249146102d057806395583f71146102f9578063ee040eb91461036f575b005b34156100b157600080fd5b6100b9610445565b6040518082815260200191505060405180910390f35b34156100da57600080fd5b6100e261044b565b6040518082815260200191505060405180910390f35b341561010357600080fd5b61011960048080359060200190919050506104c4565b6040518082815260200191505060405180910390f35b341561013a57600080fd5b61014261059d565b6040518082815260200191505060405180910390f35b341561016357600080fd5b61018f600480803573ffffffffffffffffffffffffffffffffffffffff16906020019091905050610615565b604051808673ffffffffffffffffffffffffffffffffffffffff1673ffffffffffffffffffffffffffffffffffffffff16815260200180602001858152602001848152602001838152602001828103825286818151815260200191508051906020019080838360005b838110156102135780820151818401526020810190506101f8565b50505050905090810190601f1680156102405780820380516001836020036101000a031916815260200191505b50965050505050505060405180910390f35b341561025d57600080fd5b6102656107d9565b6040518082815260200191505060405180910390f35b341561028657600080fd5b61028e610853565b604051808273ffffffffffffffffffffffffffffffffffffffff1673ffffffffffffffffffffffffffffffffffffffff16815260200191505060405180910390f35b34156102db57600080fd5b6102e3610879565b6040518082815260200191505060405180910390f35b610355600480803560ff1690602001909190803590602001908201803590602001908080601f01602080910402602001604051908101604052809392919081815260200183838082843782019150505050505091905050610887565b604051808215151515815260200191505060405180910390f35b341561037a57600080fd5b610382610dc9565b604051808673ffffffffffffffffffffffffffffffffffffffff1673ffffffffffffffffffffffffffffffffffffffff16815260200180602001858152602001848152602001838152602001828103825286818151815260200191508051906020019080838360005b838110156104065780820151818401526020810190506103eb565b50505050905090810190601f1680156104335780820380516001836020036101000a031916815260200191505b50965050505050505060405180910390f35b60095481565b60008073ffffffffffffffffffffffffffffffffffffffff16600a60009054906101000a900473ffffffffffffffffffffffffffffffffffffffff1673ffffffffffffffffffffffffffffffffffffffff1614156104ac57600090506104c1565b610e1060095442038115156104bd57fe5b0490505b90565b6000600b60009054906101000a900473ffffffffffffffffffffffffffffffffffffffff1673ffffffffffffffffffffffffffffffffffffffff163373ffffffffffffffffffffffffffffffffffffffff1614151561052257600080fd5b6729a2241af62c0000600360ff1602823073ffffffffffffffffffffffffffffffffffffffff1631031015151561055857600080fd5b3373ffffffffffffffffffffffffffffffffffffffff166108fc839081150290604051600060405180830381858888f19350505050151561059857600080fd5b919050565b60008073ffffffffffffffffffffffffffffffffffffffff16600a60009054906101000a900473ffffffffffffffffffffffffffffffffffffffff1673ffffffffffffffffffffffffffffffffffffffff1614156105fe5760009050610612565b603c600954420381151561060e57fe5b0490505b90565b600061061f610fad565b600080600061062c610fc1565b600560008873ffffffffffffffffffffffffffffffffffffffff1673ffffffffffffffffffffffffffffffffffffffff16815260200190815260200160002060a060405190810160405290816000820160009054906101000a900473ffffffffffffffffffffffffffffffffffffffff1673ffffffffffffffffffffffffffffffffffffffff1673ffffffffffffffffffffffffffffffffffffffff168152602001600182018054600181600116156101000203166002900480601f0160208091040260200160405190810160405280929190818152602001828054600181600116156101000203166002900480156107665780601f1061073b57610100808354040283529160200191610766565b820191906000526020600020905b81548152906001019060200180831161074957829003601f168201915b505050505081526020016002820160009054906101000a900460ff1660ff1660ff16815260200160038201548152602001600482015481525050905080600001518160200151826040015183606001516000600401548393508260ff169250955095509550955095505091939590929450565b60008073ffffffffffffffffffffffffffffffffffffffff16600a60009054906101000a900473ffffffffffffffffffffffffffffffffffffffff1673ffffffffffffffffffffffffffffffffffffffff16141561083a5760009050610850565b62015180600954420381151561084c57fe5b0490505b90565b600b60009054906101000a900473ffffffffffffffffffffffffffffffffffffffff1681565b600060075460085401905090565b6000806000349150600a60ff168560ff16111580156108ad5750600160ff168560ff1610155b15156108b857600080fd5b670de0b6b3a764000082101580156108d857506729a2241af62c00008211155b15156108e357600080fd5b600090505b6003811015610cef578460ff1660068260038110151561090457fe5b602091828204019190069054906101000a900460ff1660ff161415610ce25760086000815480929190600101919050555033600a60006101000a81548173ffffffffffffffffffffffffffffffffffffffff021916908373ffffffffffffffffffffffffffffffffffffffff1602179055504260098190555060a060405190810160405280600a60009054906101000a900473ffffffffffffffffffffffffffffffffffffffff1673ffffffffffffffffffffffffffffffffffffffff1681526020018581526020018660ff1681526020016009548152602001838152506000808201518160000160006101000a81548173ffffffffffffffffffffffffffffffffffffffff021916908373ffffffffffffffffffffffffffffffffffffffff1602179055506020820151816001019080519060200190610a46929190611010565b5060408201518160020160006101000a81548160ff021916908360ff1602179055506060820151816003015560808201518160040155905050600060056000600a60009054906101000a900473ffffffffffffffffffffffffffffffffffffffff1673ffffffffffffffffffffffffffffffffffffffff1673ffffffffffffffffffffffffffffffffffffffff1681526020019081526020016000206000820160009054906101000a900473ffffffffffffffffffffffffffffffffffffffff168160000160006101000a81548173ffffffffffffffffffffffffffffffffffffffff021916908373ffffffffffffffffffffffffffffffffffffffff16021790555060018201816001019080546001816001161561010002031660029004610b70929190611090565b506002820160009054906101000a900460ff168160020160006101000a81548160ff021916908360ff16021790555060038201548160030155600482015481600401559050503373ffffffffffffffffffffffffffffffffffffffff166108fc600260ff1684029081150290604051600060405180830381858888f193505050501515610bfc57600080fd5b600a60009054906101000a900473ffffffffffffffffffffffffffffffffffffffff1673ffffffffffffffffffffffffffffffffffffffff167fb584f969bd4e19c3705145fd225f2cf5d3151466cc71b357216695ec563e757f85846040518080602001838152602001828103825284818151815260200191508051906020019080838360005b83811015610c9e578082015181840152602081019050610c83565b50505050905090810190601f168015610ccb5780820380516001836020036101000a031916815260200191505b50935050505060405180910390a260019250610dc1565b80806001019150506108e8565b3373ffffffffffffffffffffffffffffffffffffffff167f0a58ba98c2e1ef767890c74c7a25be9af01e6ea93a97812ff12fe38e9594583f85846040518080602001838152602001828103825284818151815260200191508051906020019080838360005b83811015610d6f578082015181840152602081019050610d54565b50505050905090810190601f168015610d9c5780820380516001836020036101000a031916815260200191505b50935050505060405180910390a2600760008154809291906001019190505550600092505b505092915050565b6000610dd3610fad565b6000806000610de0610fc1565b60056000600a60009054906101000a900473ffffffffffffffffffffffffffffffffffffffff1673ffffffffffffffffffffffffffffffffffffffff1673ffffffffffffffffffffffffffffffffffffffff16815260200190815260200160002060a060405190810160405290816000820160009054906101000a900473ffffffffffffffffffffffffffffffffffffffff1673ffffffffffffffffffffffffffffffffffffffff1673ffffffffffffffffffffffffffffffffffffffff168152602001600182018054600181600116156101000203166002900480601f016020809104026020016040519081016040528092919081815260200182805460018160011615610100020316600290048015610f3c5780601f10610f1157610100808354040283529160200191610f3c565b820191906000526020600020905b815481529060010190602001808311610f1f57829003601f168201915b505050505081526020016002820160009054906101000a900460ff1660ff1660ff16815260200160038201548152602001600482015481525050905080600001518160200151826040015183606001516000600401548393508260ff16925095509550955095509550509091929394565b602060405190810160405280600081525090565b60a060405190810160405280600073ffffffffffffffffffffffffffffffffffffffff168152602001610ff2611117565b8152602001600060ff16815260200160008152602001600081525090565b828054600181600116156101000203166002900490600052602060002090601f016020900481019282601f1061105157805160ff191683800117855561107f565b8280016001018555821561107f579182015b8281111561107e578251825591602001919060010190611063565b5b50905061108c919061112b565b5090565b828054600181600116156101000203166002900490600052602060002090601f016020900481019282601f106110c95780548555611106565b8280016001018555821561110657600052602060002091601f016020900482015b828111156111055782548255916001019190600101906110ea565b5b509050611113919061112b565b5090565b602060405190810160405280600081525090565b61114d91905b80821115611149576000816000905550600101611131565b5090565b905600a165627a7a7230582021af5e491c35245034b54c8c2145168209ced0667ceafeefba28ccfd5ca807480029",
  "source": "pragma solidity ^0.4.4;\n\nimport \"./MultiNumberBettingAbstract.sol\";\n\ncontract MultiNumberBetting is MultiNumberBettingAbstract{\n\n    struct Winner {\n        address winnerAddress;\n        string winnerName;\n        uint8 guess;\n        uint guessedAt;\n        uint betEther;\n    }\n    Winner lastWinnerInfo;\n\n    mapping(address => Winner) winnerMapping;\n\n    uint8[3] numbers;\n    uint loserCount;\n    uint winnerCount;\n    uint public lastWinnerAt = 0;\n    address lastWinner;\n    address public owner;\n\n    modifier ownerOnly{\n        require(msg.sender == owner);\n        _;\n    }\n\n    function MultiNumberBetting(uint8 num1, uint8 num2, uint8 num3) public{\n        // constructor\n        //resetBetting();\n        numbers[0] = num1;\n        numbers[1] = num2;\n        numbers[2] = num3;\n        owner = msg.sender;\n    }\n\n    function random() private view returns (uint8) {\n        // return random [1,10] range value\n        return uint8(uint256(keccak256(block.timestamp, block.difficulty))%10)+1;\n    }\n\n    function resetBetting() internal{\n        numbers[0] = random();\n        numbers[1] = random();\n        numbers[2] = random();\n    }\n\n    function guess(uint8 guessNum, string playerName)  public payable returns(bool) {\n        // guess\n        \n        uint betEther = msg.value;\n        //require(this.balance >= 3*MAX_BET);\n        require((guessNum <= MAX_GUESS_NUM) && (guessNum >= MIN_GUESS_NUM));\n        require((betEther >= MIN_BET) && (betEther <= MAX_BET));\n        \n        for (uint i = 0; i < numbers.length; i++) {\n            if(numbers[i] == guessNum){\n                winnerCount++;\n                lastWinner = msg.sender;\n                lastWinnerAt = now;\n                lastWinnerInfo = Winner(lastWinner, playerName, guessNum, lastWinnerAt, betEther);\n                winnerMapping[lastWinner] = lastWinnerInfo;\n                \n                // Send back the reward\n                msg.sender.transfer(betEther*ODDS);\n                WinningBet(lastWinner, playerName, betEther);\n                return true;\n            } \n        }\n\n        // value will received to contract balance\n        LosingBet(msg.sender, playerName, betEther);\n        loserCount++;\n        return false;\n    }\n\n    function totalGuesses() public view returns (uint){\n        return winnerCount + loserCount;\n    }\n\n    function daysSinceLastWinning() public view returns(uint){\n        if(lastWinner == address(0x0)){\n            return 0;\n        }\n        return ((now - lastWinnerAt) / 1 days);\n        \n    }   \n\n    function hoursSinceLastWinning() public returns(uint){\n        if(lastWinner == address(0x0)){\n            return 0;\n        }\n        return ((now - lastWinnerAt) / 1 hours);\n    }\n\n    function minutesSinceLastWinning() public view returns(uint){\n        if(lastWinner == address(0x0)){\n            return 0;\n        }\n        return ((now - lastWinnerAt) / 1 minutes);\n    }\n\n    function getLastWinnerInfo() public view returns(address, string, uint, uint, uint){\n        Winner memory winner_info = winnerMapping[lastWinner];\n        return (winner_info.winnerAddress, winner_info.winnerName, winner_info.guess, winner_info.guessedAt, lastWinnerInfo.betEther);\n    }\n\n    function checkWinning(address addr) public view returns(address, string, uint, uint, uint){\n        Winner memory winner_info = winnerMapping[addr];\n        return (winner_info.winnerAddress, winner_info.winnerName, winner_info.guess, winner_info.guessedAt, lastWinnerInfo.betEther);\n    }\n\n    function ownerWithdraw(uint amt) public ownerOnly returns(uint){\n        require((this.balance-amt) >= WITHDRAW_RATE*MAX_BET);\n        msg.sender.transfer(amt);\n    }\n\n    function() public payable {\n    }\n    \n}\n",
  "sourcePath": "/home/albert/DEV/ethereum/Decentralized_Application_Design/Truffle/MultiNumberBetting/contracts/MultiNumberBetting.sol",
  "compiler": {
    "name": "solc",
    "version": "0.4.19+commit.c4cbbb05.Emscripten.clang"
  },
  "schemaVersion": "1.0.1",
  "updatedAt": "2018-04-27T08:56:13.902Z"
}